:020000001628C0
:0E0006008312031321088A00200882000800DC
:1000140003208A110A128000840AA00A0319A10A83
:08002400F003031D0A28080087
:10002C00831603178801890181130F308600831210
:10003C000313061286120613861383168801091001
:10004C0083120910880106080A3A031D3928553015
:10005C0088004130FC00EE30FD00FD0B3328FC0B1A
:10006C0033280000C9280608093A031D4928AA307C
:10007C0088004130FC00EE30FD00FD0B4328FC0BEA
:10008C0043280000C92806080E3A031D592866307B
:10009C0088004130FC00EE30FD00FD0B5328FC0BBA
:1000AC0053280000C92806080D3A031D6928993009
:1000BC0088004130FC00EE30FD00FD0B6328FC0B8A
:1000CC0063280000C92806080F3A031D7A28FF3060
:1000DC00880009104130FC00EE30FD00FD0B742847
:1000EC00FC0B74280000C92806080C3A031D8B2849
:1000FC005530880009144130FC00EE30FD00FD0B3A
:10010C008528FC0B85280000C9280608063A031D23
:10011C009C28AA30880009144130FC00EE30FD0008
:10012C00FD0B9628FC0B96280000C9280608073AF8
:10013C00031DAD286630880009144130FC00EE30F8
:10014C00FD00FD0BA728FC0BA7280000C9280608FA
:10015C00083A031DBE289930880009144130FC0070
:10016C00EE30FD00FD0BB828FC0BB8280000C928A8
:10017C00880109104130FC00EE30FD00FD0BC42855
:0A018C00FC0BC42800002928CA2833
:04400E00F22F000786
:00000001FF
