:02000000422894
:0E0006008312031322088A00210882000800DA
:10001400831603139816903083129800831687175B
:10002400071383128C1E19281A08F00013280800DD
:0E0034000030831203138C1A0130F000080014
:10004200831203131A08F100981C29281812181693
:060052007108F000080037
:10005800831603139818322800002C2883122308CB
:0400680099000800F3
:10006C0003208A110A128000840AA10A0319A20A29
:08007C00F003031D3628080003
:100084008316031788018901831287138813831643
:10009400031388018312880181308316990018158F
:1000A4000A204130FC00EE30FD00FD0B5728FC0B0C
:1000B400572800001A2070080319662821207008A8
:1000C400A0007008A3002C202008463A031D6C28C9
:1000D400053088002008423A031D72280A3088003F
:1000E4002008523A031D78280930880020084C3A29
:1000F400031D7E28063088002008533A031D8328F8
:0601040088015C2884283C
:04400E00F22F000786
:00000001FF
