:02000000B12924
:10000600710DF80DF90D7408F8027508031C750FCB
:10001600F902F00DF10D0F30FC00710DF80DF90D20
:100026007408701C1C28F8027508031C750FF90269
:100036002128F80775080318750FF907F00DF10D5B
:10004600FC0B102870182D287408F807750803187B
:08005600750FF9070000080016
:0E005E008312031331088A0030088200080064
:10006C008312031306183F280130B4000030B5008A
:10007C00942800303506031D452801303406031D35
:10008C004F28061C4F28BA0A0319BB0AB401B50144
:10009C009428861856280130B6000030B7009428F2
:1000AC0000303706031D5C2801303606031D74280A
:1000BC00861C74280130BA02031CBB03B601B701BD
:1000CC008030F00080303B067002031D6F283A0828
:1000DC00003C031C7328BA01BB01942806197B2829
:1000EC000130B8000030B900942800303906031DE7
:1000FC00812801303806031D8A28061D8A28BA017A
:10010C00BB01B801B90194283B08273A031D90287C
:0E011C000F303A06031D9428BA01BB010800FB
:10012A00831203137408003A031DA4287508003AC1
:10013A00031DA428FF30F0007F30F100FD28831250
:10014A000313FD01F901F801710870040319003461
:10015A0071087506FA00FA1BFD09FB01F51FBA289A
:10016A00F409F509F40A0319F50AF11FC128F0097F
:10017A00F109F00A0319F10A71087504FA00FA1B69
:10018A00D62803207B18E928FD1F0034F009F1095D
:10019A00F00A0319F10AF809F909F80A0319F90A20
:1001AA000034F51FE528F11BE1287108F9007008F1
:1001BA00F800F101F001C928F101F001F00A003458
:1001CA00F109F009FB0AC628F80A0319F90A7408A2
:1001DA007802031DC92875087902031DC928F90187
:1001EA00F801F00A0319F10AF11FC9280000FF34C7
:0201FA000800FB
:1001FC00831203133A08B2003B08B300E830F40052
:10020C000330F5003A08F0003B08F1009520700827
:10021C00BE007108BF003E08BC003F08BD00E830BE
:10022C00F4000330F5003A08F0003B08F10095208B
:10023C007808F0007908F1007008B2007108B3007A
:10024C00013088003E08203E8400000887000730FB
:10025C00FC007D30FD00FD0B3129FC0B3129643095
:10026C00F4000030F5003208F0003308F10095205E
:10027C007008BE007108BF003E08BC003F08BD00FE
:10028C006430F4000030F5003208F0003308F1005F
:10029C0095207808F0007908F1007008B200710818
:1002AC00B300023088003E08203E8400000887001E
:1002BC000730FC007D30FD00FD0B6229FC0B622930
:1002CC000A30F4000030F5003208F0003308F10079
:1002DC0095207008BC007108BD00043088007008BF
:1002EC00203E8400000887000730FC007D30FD00B4
:1002FC00FD0B7E29FC0B7E290A30F4000030F50042
:10030C003208F0003308F10095207808F0007908E5
:10031C00F1007008BC007108BD000830880070083E
:10032C00203E8400000887000730FC007D30FD0073
:0E033C00FD0B9E29FC0B9E293620FE28080092
:10034A002F208A110A128000840AB00A0319B10AFE
:08035A00F003031DA5290800B2
:10036200C03083120313A000F930A100A430A20010
:10037200B030A3009930A4009230A5008230A600CC
:10038200F830A7008030A8009030A9008830AA0079
:100392008330AB00C630AC00A130AD008630AE0079
:1003A2008E30AF00BA01BB018316061486140615FF
:1003B20083120614831687018801031788018901B5
:0803C2008113FE20E229E42969
:04400E00F22F000786
:00000001FF
