:0200000066296F
:10000600043083120313FC003A30FD00FD0B09286F
:08001600FC0B092800000800A2
:10001E0083120313B8013408F1000130F0007108A7
:10002E0003191D28F00D7010FF3E17287008B70039
:10003E003308840070080005F10071080130031DBB
:10004E000030F0003608F006031945283508003C4C
:10005E000318352803200320B5032D283308840008
:10006E0037080005F10071080130031D0030F00063
:10007E003608F00603194528FF30B8003808F0009E
:02008E00080068
:0E009000831203132B088A002A08820008003E
:10009E00710DF80DF90D7408F8027508031C750F33
:1000AE00F902F00DF10D0F30FC00710DF80DF90D88
:1000BE007408701C6828F8027508031C750FF90285
:1000CE006D28F80775080318750FF907F00DF10D77
:1000DE00FC0B5C28701879287408F807750803184B
:0800EE00750FF907000008007E
:1000F600831203137408003A031D8A287508003A10
:10010600031D8A28FF30F0007F30F100E3288312B8
:100116000313FD01F901F801710870040319003495
:1001260071087506FA00FA1BFD09FB01F51FA028E8
:10013600F409F509F40A0319F50AF11FA728F009CD
:10014600F109F00A0319F10A71087504FA00FA1B9D
:10015600BC284F207B18CF28FD1F0034F009F10979
:10016600F00A0319F10AF809F909F80A0319F90A54
:100176000034F51FCB28F11BC7287108F900700859
:10018600F800F101F001AF28F101F001F00A0034A6
:10019600F109F009FB0AAC28F80A0319F90A7408F0
:1001A6007802031DAF2875087902031DAF28F901EF
:1001B600F801F00A0319F10AF11FAF280000FF3415
:0201C60008002F
:1001C800063083120313B300B4010A30B5000130BE
:1001D800B6000F2070080319F2282C142C1C0229D1
:1001E8000630B300B4010A30B500B6010F2070081C
:1001F80003190229B10A0319B20A2C100630B300F8
:100208000130B4000A30B5000130B6000F20700884
:1002180003190F29AC14AC1C2E290630B300013089
:10022800B4000A30B500B6010F20700803192E2952
:100238000130B102031CB203AC108030F0008030F2
:1002480032067002031D2A293108003C031C2E299E
:10025800B101B2010630B3000230B4000A30B50073
:100268000130B6000F20700803193B292C152C1DEE
:100278004B290630B3000230B4000A30B500B6018D
:100288000F20700803194B29B101B2012C118030DD
:100298003206F0008030273A7002031D55291030CD
:0C02A8003102031C5929B101B201080009
:1002B40048208A110A128000840AAA0A0319AB0A88
:0802C400F003031D5A29080094
:1002CC003F3083120313A0000630A1005B30A20064
:1002DC004F30A3006630A4006D30A5007D30A60021
:1002EC000730A7007F30A8006F30A900B101B20120
:1002FC002C10AC102C1183160614861406158701CD
:10030C0085018801831288018316031788018901EE
:10031C008113831203133108AF003208B000AD0112
:10032C00AE01E830F4000330F5003108F00032087B
:10033C00F1007B207008AD007108AE00E830F400CD
:10034C000330F5002F08F0003008F1007B2078080E
:10035C00F0007908F1007008AF007108B0000130AE
:10036C008500113088002D08203E8400000887008D
:10037C000730FC007D30FD00FD0BC229FC0BC229AF
:10038C006430F4000030F5002F08F0003008F10064
:10039C007B207008AD007108AE006430F4000030B2
:1003AC00F5002F08F0003008F1007B207808F000F1
:1003BC007908F1007008AF007108B00002308500B8
:1003CC00223088002D08203E84000008870007306A
:1003DC00FC007D30FD00FD0BF129FC0BF1290A30EE
:1003EC00F4000030F5002F08F0003008F1007B20FD
:1003FC007008AD007108AE000430850044308800F0
:10040C007008203E8400000887000730FC007D3017
:10041C00FD00FD0B0F2AFC0B0F2A0A30F4000030F4
:10042C00F5002F08F0003008F1007B207808F00070
:10043C007908F1007008AD007108AE000830850035
:10044C00883088007008203E840000088700073040
:10045C00FC007D30FD00FD0B312AFC0B312AE42021
:04046C008F29372A73
:04400E00F22F000786
:00000001FF
