:02000000432B90
:06000600000000000800EC
:10000C000F3083120313FC004730FD00FD0B0C284E
:0A001C00FC0B0C2800000000080097
:0E002600213083120313FD00FD0B1728080084
:1000340083120313D41B2028861121288615541BF0
:100044002528061126280615D41A2A2886102B28B6
:100054008614541A2F2806103028061443183428FE
:10006400061635280612861603208612D4193C2853
:1000740086113D2886155419412806114228061573
:10008400D418462886104728861454184B2806107E
:100094004C280614431850280616512806128616B2
:1000A40003208612431C58280620592813200800D0
:1000B4008312031343104F08D4001A20431408007A
:1000C40083120313CF01D101D2011030D3000430C5
:1000D400520203188E28F0308800530983168800D2
:1000E400032003200F3083120805F0007008D000AD
:1000F4007008031988285108CF005008031986286E
:10010400D00CD013CF0A7F280430D200D30D531063
:0E0114000430D107D20A69284F08F000080015
:10012200063083120313FD00FD0B95280000080022
:0E0132008312031336088A0035088200080085
:1001400083120313FB01FA01F9018030F800F10C6E
:10015000F00C031CB4287408F90775080318750F10
:10016000FA070318FB0A0310F01FBC287408FA07EB
:1001700075080318750FFB07FB0CFA0CF90CF80C4B
:10018000031CA7287B08F3007A08F2007908F10025
:060190007808F0000800F1
:1001960083120313F8010830FC00700DF80D740883
:1001A600F8020318D828F8070310F00DFC0BD02826
:0201B60008003F
:1001B800EE28803083120313CB000129C030CB0016
:1001C80001299430CB000129D430CB00012980309B
:1001D800CB000129831203134B08013A0319DD28C8
:1001E8004B08023A0319E2284B08033A0319E52899
:1001F8004B08043A0319E828EB284C03F0004B0895
:10020800F0077008CB007008D4001A204310CE0104
:100218004E084D078400000803191A294E084D0797
:1002280084000008CF005A20CE0A0C294314080085
:100238002E29803083120313CB004129C030CB0014
:1002480041299430CB004129D430CB00412980305A
:10025800CB004129831203134B08013A03191D29C6
:100268004B08023A031922294B08033A0319252996
:100278004B08043A031928292B294C03F0004B0892
:10028800F0077008CB0043147008D4001A204310FC
:0A0298004D08D4001A20431408009A
:1002A20062207008CB000F300805F00003195B29AB
:0A02B200912054294B08F0000800C9
:1002BC00831203134B0884000008031972294B089E
:1002CC0084000008F1004C08840071080006031D2E
:1002DC007229CB0ACC0A5E294B0884000008F00076
:1002EC004C0884000008F002F101031CF103080023
:1002FC00831203134B08393C031C8B2930304B02FF
:0E030C00031C8B290130F0008C29F001080041
:10031A0083120313C6010330460203189B294608B9
:10032A004507840020308000C60A90294608450700
:10033A0084008001C60346084507C7000A30F40056
:10034A004408F000CB207808F0003030F007470866
:10035A008400700880000A30F4004408F000CB20C2
:10036A007008C4007008003A031DBC29BE29C603E0
:04037A00A0290800AE
:10037E0083120313440884000008C500C601003030
:10038E00C60000304606031DCE292030450603194F
:10039E00D92900304606031DD62909304506031912
:1003AE00D929DB29C40ABF29C701C801C901CA015D
:1003BE0000304606031DE5292D304506031DEC29A8
:1003CE00C90A0319CA0AC40AF52900304606031DD4
:1003DE00F2292B304506031DF529C40A4408840072
:1003EE000008C500C6010030C6004508CB007E21BE
:1003FE00700803191D2A4708F0004808F1000A305A
:10040E00F4000030F500A02030304502F20000303C
:10041E00031C013E4602F30072087007C700710804
:10042E000318013E7307C800C40AF52949084A0497
:10043E0003192A2A4708003CF0004808031C013E15
:10044E00F101F1022E2A4708F0004808F1000800D9
:10045E00013083120313D4001A200130CB00013077
:10046E00CC002030CD00DC20BD01BE0180303E0628
:10047E00F00080307002031D462A03303D0203183F
:10048E00D22A3D083F3E84000008003A031D582A38
:10049E003D083F3EC400512144088400700880008E
:1004AE00482A3D083F3E84000008013A031D642A95
:1004BE003D083F3E8400373080003D083F3E8400BB
:1004CE000008023A031D702A3D083F3E8400383072
:1004DE0080003D083F3E84000008033A031D7C2A3D
:1004EE003D083F3E8400393080003D083F3E840089
:1004FE000008053A031D882A3D083F3E840034302B
:10050E0080003D083F3E84000008063A031D942AF1
:10051E003D083F3E8400353080003D083F3E84005C
:10052E000008073A031DA02A3D083F3E84003630DE
:10053E0080003D083F3E84000008093A031DAC2AA6
:10054E003D083F3E8400313080003D083F3E840030
:10055E0000080A3A031DB82A3D083F3E8400323097
:10056E0080003D083F3E840000080B3A031DC42A5C
:10057E003D083F3E8400333080000230CB003D0A00
:10058E00CC003D083F3E84000008CD001C21BD0A72
:10059E000319BE0A3D2A3F30CB003130CC005E211C
:1005AE0000307106031DDD2A00307006031DE22A9D
:0A05BE000130F000E32A2F2A0800A4
:1005C800831603138612061206108610061186116A
:1005D800831286120612861106118610061006204E
:1005E8000620062086140614861603208612062086
:1005F80086160320861206208616032086120620F9
:1006080006108616032086120620861603208612F8
:100618008610861586160320861206208611061473
:1006280086160320861206108616032086120620D8
:1006380086160320861206148616032086120620C4
:1006480006108616032086128615061586140614CB
:0C065800861603208612062043140800BA
:1006640099208A110A128000840AB50A0319B60A6D
:08067400F003031D322B080006
:0A067C00FF30831603138800080006
:10068600453083120313A0006E30A1007430A2001F
:100696006530A3007230A4002030A5005030A600BB
:1006A6006130A7007330A8007330A9007730AA0024
:1006B6006F30AB007230AC006430AD002030AE005D
:1006C6003A30AF00B0013130B1003230B2003330D1
:1006D600B300B401831603178801890103130710B9
:1006E60083120710E4223E230C308312D4001A2012
:1006F6002F223F30C400BF217008B7007108B80030
:100706007008C4003930C5008D210130D4001A208C
:100716000130CB000230CC003930CD00DC20013076
:1007260087060B30FB002630FC005D30FD00FD0B1C
:100736009A2BFC0B9A2BFB0B9A2B00000000882BA4
:02074600A32BE3
:04400E00F22F000786
:00000001FF
