:020000005B287B
:0E0006008312031321088A00200882000800DC
:10001400043083120313FC003A30FD00FD0B10285A
:08002400FC0B1028000008008D
:10002C0083120313AB012708F1000130F0007108B3
:10003C0003192428F00D7010FF3E1E287008AA002A
:10004C002608840070080005F10071080130031DBA
:10005C000030F0002908F00603194C282808003C51
:10006C0003183C280A200A20A803342826088400F8
:10007C002A080005F10071080130031D0030F00062
:10008C002908F00603194C28FF30AB002B08F000B0
:02009C0008005A
:10009E0003208A110A128000840AA00A0319A10AF9
:0800AE00F003031D4F280800B8
:1000B6008316031788018901811306148614031316
:1000C6008801831288010630A600A7010A30A8001D
:1000D600A90116207008031982280330FB008A3014
:1000E600FC005530FD00FD0B7628FC0B7628FB0B3B
:1000F6007628000000000130A2000030A300063080
:10010600A600A7010A30A800A90116207008031945
:10011600C02800302306031D922801302206031D45
:10012600C028A201A30108140330FB008A30FC009A
:100136005530FD00FD0B9D28FC0B9D28FB0B9D28D3
:100146000000000008100330FB008A30FC00553028
:10015600FD00FD0BAC28FC0BAC28FB0BAC2800000B
:1001660000000630A600A7010A30A800A901162043
:1001760070080319BF28C02896280630A60001304B
:10018600A7000A30A800A901162070080319DD2867
:100196000330FB008A30FC005530FD00FD0BD128F2
:1001A600FC0BD128FB0BD128000000000130A40075
:1001B6000030A5000630A6000130A7000A30A800CE
:1001C600A9011620700803191D2900302506031DF4
:1001D600EE2801302406031D1D29A401A50188145B
:1001E6000330FB008A30FC005530FD00FD0BF9287A
:1001F600FC0BF928FB0BF9280000000088100330DF
:10020600FB008A30FC005530FD00FD0B0829FC0B75
:100216000829FB0B0829000000000630A600013063
:10022600A7000A30A800A9011620700803191C2986
:080236001D29F22866281E298B
:04400E00F22F000786
:00000001FF
