:02000000AD2928
:10000600710DF80DF90D7408F8027508031C750FCB
:10001600F902F00DF10D0F30FC00710DF80DF90D20
:100026007408701C1C28F8027508031C750FF90269
:100036002128F80775080318750FF907F00DF10D5B
:10004600FC0B102870182D287408F807750803187B
:08005600750FF9070000080016
:0E005E008312031331088A0030088200080064
:10006C008312031306183F280130B4000030B5008A
:10007C00982800303506031D452801303406031D31
:10008C004F28061C4F28BA0A0319BB0AB401B50144
:10009C009828861856280130B6000030B7009828EA
:1000AC0000303706031D5C2801303606031D74280A
:1000BC00861C74280130BA02031CBB03B601B701BD
:1000CC008030F00080303B067002031D6F283A0828
:1000DC00003C031C7328BA01BB01982806197B2825
:1000EC000130B8000030B900982800303906031DE3
:1000FC00812801303806031D8A28061D8A28BA017A
:10010C00BB01B801B901982880303B06F000803063
:10011C00273A7002031D942810303A02031C9828C9
:06012C00BA01BB0108004E
:10013200831203137408003A031DA8287508003AB5
:10014200031DA828FF30F0007F30F100012983123F
:100152000313FD01F901F801710870040319003459
:1001620071087506FA00FA1BFD09FB01F51FBE288E
:10017200F409F509F40A0319F50AF11FC528F00973
:10018200F109F00A0319F10A71087504FA00FA1B61
:10019200DA2803207B18ED28FD1F0034F009F1094D
:1001A200F00A0319F10AF809F909F80A0319F90A18
:1001B2000034F51FE928F11BE5287108F9007008E1
:1001C200F800F101F001CD28F101F001F00A00344C
:1001D200F109F009FB0ACA28F80A0319F90A740896
:1001E2007802031DCD2875087902031DCD28F90177
:1001F200F801F00A0319F10AF11FCD280000FF34BB
:020202000800F2
:10020400831203133A08B2003B08B300E830F40049
:100214000330F5003A08F0003B08F100992070081B
:10022400BC007108BD00E830F4000330F50032086A
:10023400F0003308F10099207808F0007908F10003
:100244007008B2007108B300013088003C08203EF9
:100254008400000887000730FC007D30FD00FD0BA2
:100264003129FC0B31296430F4000030F5003208E8
:10027400F0003308F10099207008BC007108BD003B
:100284006430F4000030F5003208F0003308F10067
:1002940099207808F0007908F1007008B20071081C
:1002A400B300023088003C08203E84000008870028
:1002B4000730FC007D30FD00FD0B5E29FC0B5E2940
:1002C4000A30F4000030F5003208F0003308F10081
:1002D40099207008BC007108BD00043088007008C3
:1002E400203E8400000887000730FC007D30FD00BC
:1002F400FD0B7A29FC0B7A290A30F4000030F50052
:100304003208F0003308F10099207808F0007908E9
:10031400F1007008BC007108BD0008308800700846
:10032400203E8400000887000730FC007D30FD007B
:0E033400FD0B9A29FC0B9A293620022908009D
:100342002F208A110A128000840AB00A0319B10A06
:08035200F003031DA1290800BE
:10035A00C03083120313A000F930A100A430A20018
:10036A00B030A3009930A4009230A5008230A600D4
:10037A00F830A7008030A8009030A9008830AA0081
:10038A008330AB00C630AC00A130AD008630AE0081
:10039A008E30AF00BA01BB01831606148614061507
:1003AA0083120614831687018801031788018901BD
:0803BA0081130221DE29E02974
:04400E00F22F000786
:00000001FF
