:02000000402896
:0E0006008312031323088A00220882000800D8
:100014000E3083120313FD00FD0B0E2800000800B0
:10002400C330831203139F05C0309F002408F000DF
:10003400F00D7010F00D701070089F0483169F1758
:1000440083121F140A209F149F1C2A2800002628AC
:100054001F101E08F100F00183161E08F004003082
:04006400F10408009B
:1000680003208A110A128000840AA20A0319A30A2B
:08007800F003031D3428080009
:1000800083160317081403130514880187018312CC
:10009000A401122070088312A0007108A10070084A
:1000A00087007108F200F301720888000330FC0039
:1000B0009730FD00FD0B5A28FC0B5A280000000069
:0400C0004728612844
:04400E00F22F000786
:00000001FF
