:02000000B12D20
:0E000600213083120313FD00FD0B07280800B4
:100014000F3083120313FC004730FD00FD0B102842
:0A002400FC0B10280000000008008B
:06002E00000000000800C4
:1000340083160313AA1B21288312861323288312F1
:10004400861783162A1B2928831206132B2883124A
:1000540006178316AA1A31288312861233288312AC
:10006400861683162A1A3928831206123B2883120D
:10007400061657183F28061540280611861517201E
:1000840086118316AA194928831286134B288312D2
:10009400861783162A1951288312061353288312AC
:1000A40006178316AA185928831286125B2883120E
:1000B400861683162A18612883120612632883126F
:1000C400061657186728061568280611861517207E
:0E00D4008611571C6F280A2070280320080090
:0E00E200F201F101F001F801F3010030080015
:1000F000FB14FB1F8228FF30F300F200F100F00038
:08010000FA0DF20CFF300800BB
:100108007B15FB1F8E280130F300F201F101F0018D
:08011800FA0DF20CFF300800A3
:08012000FA1FF2130030080081
:100128000E3083120313FD00FD0B98280000080011
:0E0138008312031353088A0052088200080045
:1001460083120313571083162808AA001A2057147F
:0201560008009F
:10015800A0017208031DC1287108F2007008F1009F
:10016800F001A0157208031DC1287108F200F10101
:10017800A011201672080319CF282008F302031DC6
:10018800031CD3280310F21BD728F00DF10DF20D34
:10019800F30BC728D3280130FC007120DA2802307D
:0E01A800FC008420DA280430FC0090200800BF
:1001B600831603132808F2007208F100F20A2908D0
:1001C600F000A90A700884000008F0007108840095
:1001D600700880007108840000080319F328DF28DE
:0601E6002808F0000800EB
:1001EC0083120313FA017308031D7A147708031D95
:1001FC00FA147A0803194229033A03190D297A18BB
:10020C000A29F61F40293E29F21F3E29402972086F
:10021C008039FA00F21376088039F6137A0603193E
:10022C001B297A0803193E29402977087302031900
:10023C002229031C36293A29760872020319292926
:10024C00031C36293A297508710203193029031C3D
:10025C0036293A29740870020319422903183A29DD
:10026C00FA08031940293E29FA0803193E294029A6
:10027C0003140800031008000314031508000800F9
:10028C0083120313FB017308031D770803199D29BF
:10029C0072087606FA007708F3077E30031C5A2999
:1002AC00F3020318A0295D29F302031CA329720889
:1002BC00F8007108FC007008FD00F817F617031021
:1002CC00F201F101F0011830A0007D1C77297408AF
:1002DC00F00775080318750FF10776080318760FE9
:1002EC00F207F20CF10CF00CF80CFC0CFD0C0310EA
:1002FC00A00B6B29F21B8729F80DF00DF10DF20DF7
:10030C00F3037B1B701C9929F81F9929F00A031918
:10031C00F10A0319F20A031D9929F20CF10CF00CE5
:10032C00F30A0319A029FA1FF2130030A529013092
:10033C007120A52902307820A529043084200000E2
:02034C000800A7
:10034E0083120313F8010830FC00700DF80D7408C9
:10035E00F8020318B429F8070310F00DFC0BAC29B2
:02036E00080085
:06037000FB15FF30080040
:1003760083160313A601A70183126B088316A20036
:1003860083126C088316A30083126D088316A400DB
:1003960083126E088316A5002508FF3A031DDD2982
:1003A6002408FF3A031DDD292308FF3A031DDD2932
:1003B6002208FF3A031DE92983126F088316A80055
:1003C6003830A900DB200330F000DA2B0130A00022
:1003D600A41FF92980302406F0007008A400A00AA2
:1003E60083126F0884002D308000EF0A0030F00081
:1003F60083162506031D092A70082406031D092AEB
:1004060070082306031D092A2208003A031D142A30
:1004160083126F088316A8003C30A900DB20F00188
:10042600DA2B2508FF3A031D222A2408003A031D69
:10043600222A2308003A031D222A2208003A031D15
:100446002E2A83126F088316A8003E30A900DB20EF
:100456002008F000DA2B0030F4000030F500003000
:10046600F6007F30F7002208F0002308F100240888
:10047600F2002508F300F620013003180030F000E2
:1004860070080319632A83162208F0002308F10076
:100496002408F2002508F3000030F4000030F500CF
:1004A6002030F6008230F700462170088316A2003D
:1004B6007108A3007208A4007308A500A7032E2ADA
:1004C60083160030F4000030F5002030F60082304C
:1004D600F7002208F0002308F1002408F20025089E
:1004E600F300F6200130031C0030F00070080319F9
:1004F600992A83162208F0002308F1002408F20046
:100506002508F300CD30F400CC30F5004C30F60071
:100516007B30F700462170088316A2007108A300FD
:100526007208A4007308A500A70A632A8316FF3081
:100536002205F800FF302305F9007F302405FA0074
:1005460000302505FB007808F4007908F5007A08E4
:10055600F6007B08F700F40DF50DF60DF70D741097
:1005660000302205F00000302305F100003024059C
:10057600F200FF302505F3007008A2007108A30001
:100586007208A4007308A50074082204F000750818
:100596002304F10076082404F20077082504F3000A
:1005A6007008A2007108A3007208A4007308A500D1
:1005B6007F302502F0007008A1000130A500700808
:1005C600F4002208F0002308F1002408F2002508B0
:1005D600F30074080319F62AF00DF10DF20DF30D70
:1005E6007010FF3EED2A7008A2007108A300720881
:1005F600A4007308A5002508303EF00083126F089A
:10060600840070088000EF0A803083162706F00009
:100616008030013A7002031C192B8030063AF00034
:10062600803027067002031C192B222B83126F08B9
:1006360084002E308000EF0A01308316A6000630B3
:10064600A1002108003A0319842BA5012208F00015
:100656002308F1002408F2002508F300F00DF10D3F
:10066600F20DF30D7010F00DF10DF20DF30D70108B
:100676002208F00723080318230FF107240803189C
:10068600240FF20725080318250FF3077008A200A8
:100696007108A3007208A4007308A5002208F000E0
:1006A6002308F1002408F2002508F300F00DF10DEF
:1006B600F20DF30D70107008A2007108A300720805
:1006C600A4007308A5002508303EF00083126F08C9
:1006D600840070088000EF0A83162608003A031D7E
:1006E600822BA7032708003A031D822B83126F086B
:1006F60084002E308000EF0A01308316A600A10385
:10070600242BFF3083126F0784000008303A031D44
:100716008E2BEF03842BFF306F07840000082E3AE0
:10072600031D962BEF0383162708003A0319D52BD2
:1007360083126F08840065308000EF0A80308316CC
:100746002706F0008030003A70020318B42B83129B
:100756006F0884002D308000EF0A83162708003CBE
:10076600A7002708A1002708093C0318C62B0A3052
:10077600F4002108F000A7213030F0076F0884004C
:1007860070088000EF0A0A30F40083162108F00092
:10079600A7217808F0003030F0076F088400700851
:1007A6008000EF0A83126F0884008001F0010800C0
:1007B600ED2B803083120313EB00002CC030EB00CE
:1007C600002C9430EB00002CD430EB00002C803051
:1007D600EB00002C831203136B08013A0319DC2B80
:1007E6006B08023A0319E12B6B08033A0319E42B51
:1007F6006B08043A0319E72BEA2B6C03F0006B082D
:10080600F0077008EB00571470088316AA001A2028
:0E08160057106D088316AA001A205714080008
:10082400831203139F01C0309F0483161F179F1761
:1008340083126B08F000F00D7010F00D7010F00DC5
:10084400701070089F041F1494201F151F1D2C2C5A
:100854000000282C1F101E08F100F00183161E084A
:08086400F0040030F10408006B
:10086C00831203137408003A031D512C7508003AC7
:10087C00031D512C7608003A031D512C7708003AC1
:10088C00031D512CFF30F000FF30F1007F30F200DF
:10089C00FF30F300EC2C8312031377080319E02CC0
:1008AC0073080319E32C720876068039FA00F217E4
:1008BC00F617A0017208F8007108FC007008FD0022
:1008CC007408FD027508031C750FFC027608031CE6
:1008DC00760FF802F801FC01FD01031C7C2C0310BF
:1008EC00F20CF10CF00CF80C0130A0007708F302BC
:1008FC00031C862C7E302007F3070318E62C8B2C68
:10090C007E302007F307031CE92C1830FA07FD0D85
:10091C00FC0DF80DF00DF10DF20DA00D7408F002A8
:10092C007508031C750FF1027608031C760FF20292
:10093C00760DA004201CA42C7D14AF2C7408F00799
:10094C0075080318750FF10776080318760AF20775
:10095C007D10FA031F307A05031D8D2C7B1B7D1C2B
:10096C00D62C0310F00DF10DF20DA00D7408F00251
:10097C007508031C750FF1027608031C760FF20242
:10098C00760D20040139FD070318FC0A0319F80A37
:10099C00031DD62CF80CFC0CFD0CF30A0319E62CE9
:1009AC00FA1FF8137808F2007C08F1007D08F000BB
:1009BC000030EB2C0130B821EB2C02307120EB2CE9
:0E09CC0004307820EB2C083084200000080056
:1009DA00FF2C803083120313EB00122DC030EB0082
:1009EA00122D9430EB00122DD430EB00122D8030F2
:1009FA00EB00122D831203136B08013A0319EE2C34
:100A0A006B08023A0319F32C6B08033A0319F62C04
:100A1A006B08043A0319F92CFC2C6C03F0006B08E0
:100A2A00F0077008EB0070088316AA001A20571006
:100A3A00EE016E086D078400000803192D2D6E085B
:100A4A006D07840000088316A800A320EE0A1E2D55
:040A5A005714080025
:100A5E0083160313861106110612861206138613C9
:100A6E0083128611061186130613861206120A20A9
:100A7E000A200A20861606168615172086110A20C9
:100A8E008615172086110A208615172086110A2032
:100A9E0006128615172086110A2086151720861134
:100AAE00861286178615172086110A2086130616BB
:100ABE0086151720861106128615172086110A2014
:100ACE0086151720861106168615172086110A2000
:100ADE000612861517208611861706178616061615
:0C0AEE008615172086110A2057140800F6
:100AFA00FF3083120313D400FF30D500FF30D60035
:100B0A00FF309F01C0309F0483161F179F1783125F
:040B1A001F1408009C
:100B1E00831203137008F8007108F000F101F2015E
:100B2E00F301FB01FC019630F300FA017008F100AD
:0C0B3E007808F000F801F201AC2008007B
:100B4A009C208A110A128000840AD20A0319D30A45
:080B5A00F003031DA52D0800A6
:100B620084268316031305147D252F250130831651
:100B7200AA001A200C308316AA001A200130EB00BA
:100B82000130EC002130ED00ED240230EB000130A9
:100B9200EC002C30ED00ED240B30FB002630FC0085
:100BA2005D30FD00FD0BD32DFC0BD32DFB0BD32DA4
:100BB2000000000001308316AA001A200130EB0069
:100BC2000130EC004230ED00ED240230EB00083041
:100BD200EC00DF30ED00DB230230EB000930EC00EB
:100BE2004330ED00DB23D001D101EB011224700868
:100BF2008312D0007108D1008F250030F4004030FC
:100C0200F5001C30F6008B30F70046210030F4006E
:100C12000030F5000030F6008930F7003624700805
:100C2200E7007108E8007208E9007308EA00003082
:100C3200F4000030F5002030F6008230F700362450
:100C42007008E7007108E8007208E9007308EA001A
:100C52007008EB007108EC007208ED007308EE00FA
:100C62005830EF00BB2183120313DC010230EB008A
:100C72000330EC005830ED00ED240630FB00133059
:100C8200FC00AD30FD00FD0B442EFC0B442EFB0B93
:0A0C9200442E00000000F62D4D2E48
:100D080021308400313083120313F0005330D200B5
:080D18000630D300A5250800F8
:100CA600203420344434693467346934743461340C
:060CB6006C342034003410
:100CBC0054346834653472346D346F346D34653447
:080CCC00743465347234003405
:080CD4004E3461344E3400344B
:040CDC00303400347C
:080CE00049344E34463400345F
:100CE800543465346D34703465347234613474341A
:0C0CF80075347234653420343A34003412
:040D04000034003483
:02400E004A2F37
:00000001FF
