:020000008D2A47
:1000060004308312031388004130FC00EE30FD00FB
:10001600FD0B0B28FC0B0B280000061D032808000F
:08002600831203138801080096
:10002E0001308312031388004130FC00EE30FD00D6
:10003E00FD0B1F28FC0B1F280000061D17280800AB
:10004E0005308312031388004130FC00EE30FD00B2
:0C005E00FD0B2F28FC0B2F2800000800D1
:0E006A008312031357088A005608820008000C
:100078000030831203132106031D44284430200650
:100088000130031D0030F0007008243E8400000891
:100098000319A828061E5A28861D5A2806195A2800
:1000A800861C5A28061C5A282720A7280030210613
:1000B800031D60284C3020060130031D0030F0007D
:1000C8007008243E8400000803196E281720A00A2F
:1000D8000319A10A00302106031D74285230200696
:1000E8000130031D0030F0007008243E8400000831
:1000F800031982280320A00A0319A10A0030210647
:10010800031D8828533020060130031D0030F000FD
:100118007008243E84000008031996282720A00AA6
:100128000319A10A00302106031D9C28443020062B
:100138000130031D0030F0007008243E84000008E0
:0A0148000319A72813203C28080023
:1001520083120313D801D9012208243E84000330FC
:100162000002F100F201031CF20300307206031DCB
:10017200BC284C307106031DE4282208243E84006A
:1001820001300002F100F201031CF203003072069A
:10019200031DCD2852307106031DE42803302202CC
:1001A200F0000030031C013E2302F1007008A2009F
:1001B2007108A3007008243E84005530800001308D
:1001C200D8000030D9002208243E84000330000207
:1001D200F100F201031CF20300307206031DF32842
:1001E2004C307106031D23292208243E840001306D
:1001F2000002F100F201031CF20300307206031D3B
:10020200042953307106031D232900305906031DAA
:100212000C2900305806031D232903302202F00066
:100222000030031C013E2302F1007008A200710895
:10023200A3007008243E8400523080000130D800B0
:100242000030D9002208243E840003300002F1006D
:10025200F201031CF20300307206031D32295230F0
:100262007106031D62292208243E84000130000227
:10027200F100F201031CF20300307206031D432950
:100282004C307106031D622900305906031D4B29AB
:1002920000305806031D622903302202F0000030AC
:1002A200031C013E2302F1007008A2007108A300A2
:1002B2007008243E8400553080000130D8000030A0
:1002C200D9002208243E840003300002F100F2012A
:1002D200031CF20300307206031D712953307106AC
:1002E200031DA1292208243E840001300002F100EE
:1002F200F201031CF20300307206031D82294C3006
:100302007106031DA12900305906031D8A290030F8
:100312005806031DA12903302202F0000030031CFD
:10032200013E2302F1007008A2007108A3007008C8
:10033200243E8400523080000130D8000030D900C1
:100342002208243E840003300002F100F201031C63
:10035200F20300307206031DB02953307106031DEB
:10036200E0292208243E840001300002F100F2015B
:10037200031CF20300307206031DC12953307106BB
:10038200031DE02900305906031DC9290030580613
:10039200031DE02903302202F0000030031C013E5D
:1003A2002302F1007008A2007108A3007008243E25
:1003B2008400553080000130D8000030D900220876
:1003C200243E840003300002F100F201031CF20318
:1003D20000307206031DEF294C307106031D1F2ADF
:1003E2002208243E840001300002F100F201031CC5
:1003F200F20300307206031D002A4C307106031D01
:100402001F2A00305906031D082A00305806031D12
:100412001F2A03302202F0000030031C013E230297
:10042200F1007008A2007108A3007008243E840045
:0E043200533080000130D8000030D90008009F
:10044000831203132208243E840044308000880174
:100450007F30FB00D430FC003130FD00FD0B2E2A34
:10046000FC0B2E2AFB0B2E2A000000003C2008006B
:1004700001308312031388004130FC00EE30FD0090
:10048000FD0B402AFC0B402A0000061D382A2208DA
:10049000243E84004C308000A20A0319A30AA9203C
:0204A000080052
:1004A20009308312031388004130FC00EE30FD0056
:1004B200FD0B592AFC0B592A0000061D512A22085D
:1004C200243E840055308000A20A0319A30AA92001
:0204D200080020
:1004D40035208A110A128000840AD60A0319D70A21
:0804E400F003031D6A2A080061
:1004EC0005308312031388004130FC00EE30FD0010
:1004FC00FD0B7E2AFC0B7E2A00002208243E840081
:0E050C0053308000A20A0319A30AA920080098
:10051A0083120313A001A10183160317880189011D
:10052A008312871388130130831603138600880108
:10053A0081138312061EAB2A861DAB2A0619AB2A23
:10054A00861CAB2A061CAB2A2720012B061EC42AAE
:10055A00861DC42A0619C42A8618C42A0618C42A5B
:10056A002720061EC22A861DC22A0619C22A861CEE
:10057A00C22A061CC22A7622C32A0320012B061A83
:10058A00DD2A8619DD2A0619DD2A861CDD2A061CC3
:10059A00DD2A2720061ADB2A8619DB2A061DDB2A12
:1005AA008618DB2A0618DB2A3822DC2A1720012BB8
:1005BA00061AF62A8619F62A0619F62A8618F62A35
:1005CA000618F62A2720061AF42A8619F42A061982
:1005DA00F42A8618F42A0618F42A2022F52A382240
:1005EA00012B061E012B861D012B061D012B861CC5
:0C05FA00012B061C012B51229E2A022B13
:04400E00F22F000786
:00000001FF
