:020000005C287A
:0E0006008312031322088A00210882000800DA
:10001400023083120313FC004930FD00FD0B10284D
:0A002400FC0B10280000000008008B
:10002E0083120313A8012408F1000130F0007108B7
:10003E0003192528F00D7010FF3E1F287008A70029
:10004E002308840070080005F10071080130031DBB
:10005E000030F0002608F00603194D282508003C54
:10006E0003183D280A200A20A503352823088400FA
:10007E0027080005F10071080130031D0030F00063
:10008E002608F00603194D28FF30A8002808F000B6
:02009E00080058
:1000A00003208A110A128000840AA10A0319A20AF5
:0800B000F003031D50280800B5
:1000B80083160317880189010130860055308312A1
:1000C8000313880083168801831220108316811376
:1000D80006308312A300A4010130A5000130A60058
:1000E80017207008031979282014201C9628063038
:1000F800A300A4010130A500A60117207008031968
:100108009628881B8928A0108A28A0140808F000BF
:10011800F00D701070088800A01894280810952811
:08012800081420106C28972830
:04400E00F22F000786
:00000001FF
