:020000005C287A
:0E0006008312031322088A00210882000800DA
:10001400023083120313FC004930FD00FD0B10284D
:0A002400FC0B10280000000008008B
:10002E0083120313A8012408F1000130F0007108B7
:10003E0003192528F00D7010FF3E1F287008A70029
:10004E002308840070080005F10071080130031DBB
:10005E000030F0002608F00603194D282508003C54
:10006E0003183D280A200A20A503352823088400FA
:10007E0027080005F10071080130031D0030F00063
:10008E002608F00603194D28FF30A8002808F000B6
:02009E00080058
:1000A00003208A110A128000840AA10A0319A20AF5
:0800B000F003031D50280800B5
:1000B800831603178801890101308600031388011C
:1000C8000F308312880020110630A300A4010130EC
:1000D800A5000130A6001720700803197428201500
:1000E800201D91280630A300A4010130A500A60117
:1000F80017207008031991280818842820108528CB
:1001080020140808F000F00CF0137008880020187C
:100118008F2888139028881720110630A3000130F3
:10012800A4000130A5000130A600172070080319AB
:100138009E282015201DBC280630A3000130A400ED
:100148000130A500A601172070080319BC28881BD8
:10015800AF28A010B028A0140808F000F00D701007
:1001680070088800A018BA280810BB2808142011A5
:040178006828BD280E
:04400E00F22F000786
:00000001FF
