:0200000079295C
:10000600710DF80DF90D7408F8027508031C750FCB
:10001600F902F00DF10D0F30FC00710DF80DF90D20
:100026007408701C1C28F8027508031C750FF90269
:100036002128F80775080318750FF907F00DF10D5B
:10004600FC0B102870182D287408F807750803187B
:08005600750FF9070000080016
:0E005E00831203132B088A002A088200080070
:10006C008312031305183E280130AE000030AF0098
:10007C0000302F06031D442801302E06031D4E2888
:10008C00051C4E28B40A0319B50AAE01AF01542859
:10009C00851854280130B0000030B1000030310612
:1000AC00031D5A2801303006031D7128851C712848
:1000BC000130B402031CB503B001B1018030F00073
:1000CC00803035067002031D6D283408003C031C7B
:1000DC007128B401B501051977280130B200003040
:1000EC00B30000303306031D7D2801303206031D9A
:1000FC008528051D8528B401B501B201B3018030F6
:10010C003506F0008030033A7002031D8F28E8306A
:0C011C003402031C9328B401B501080054
:10012800831203137408003A031DA3287508003AC4
:10013800031DA328FF30F0007F30F100FC28831254
:100148000313FD01F901F801710870040319003463
:1001580071087506FA00FA1BFD09FB01F51FB9289D
:10016800F409F509F40A0319F50AF11FC028F00982
:10017800F109F00A0319F10A71087504FA00FA1B6B
:10018800D52803207B18E828FD1F0034F009F10961
:10019800F00A0319F10AF809F909F80A0319F90A22
:1001A8000034F51FE428F11BE0287108F9007008F5
:1001B800F800F101F001C828F101F001F00A00345B
:1001C800F109F009FB0AC528F80A0319F90A7408A5
:1001D8007802031DC82875087902031DC828F9018B
:1001E800F801F00A0319F10AF11FC8280000FF34CA
:0201F8000800FD
:1001FA00831203133408AC003508AD006430F400F0
:10020A000030F5003408F0003508F1009420700839
:10021A00B8007108B9003808B6003908B700643068
:10022A00F4000030F5003408F0003508F10094209D
:10023A007808F0007908F1007008AC007108AD0088
:10024A003808203E8400000888000730FC007D3012
:10025A00FD00FD0B2E29FC0B2E290A30F40000307C
:10026A00F5002C08F0002D08F10094207008B60063
:10027A007108B7007008203E840000088700073024
:10028A00FC007D30FD00FD0B4829FC0B48290A3093
:10029A00F4000030F5002C08F0002D08F10094203D
:1002AA007808F0007908F1007008B6007108B70004
:1002BA007008203E8400000886000730FC007D306C
:1002CA00FD00FD0B6629FC0B66293620FD28080077
:1002DA002F208A110A128000840AAA0A0319AB0A7B
:0802EA00F003031D6D2908005B
:1002F2003F3083120313A0000630A1005B30A2003E
:100302004F30A3006630A4006D30A5007D30A600FA
:100312000730A7007F30A8006730A900B401B501FB
:1003220083160514851405158601870188010317B4
:0C033200880189018113FD209C299E296F
:04400E00F22F000786
:00000001FF
