:020000005B287B
:0E0006008312031321088A00200882000800DC
:10001400043083120313FC003A30FD00FD0B10285A
:08002400FC0B1028000008008D
:10002C0083120313BF013B08F1000130F00071088B
:10003C0003192428F00D7010FF3E1E287008BE0016
:10004C003A08840070080005F10071080130031DA6
:10005C000030F0003D08F00603194C283C08003C29
:10006C0003183C280A200A20BC0334283A088400D0
:10007C003E080005F10071080130031D0030F0004E
:10008C003D08F00603194C28FF30BF003F08F00074
:02009C0008005A
:10009E0003208A110A128000840AA00A0319A10AF9
:0800AE00F003031D4F280800B8
:1000B6003F3083120313A4000030A5000630A600CB
:1000C6000030A7005B30A8000030A9004F30AA001E
:1000D6000030AB006630AC000030AD006D30AE00D5
:1000E6000030AF007D30B0000030B1000730B20004
:1000F6000030B3007F30B4000030B5006730B60082
:100106000030B700B801B9018316031788018901C9
:1001160001308312031386008316061488018312A6
:10012600880183168113003083123906031D9D282A
:100136000A303806031DA228B801B901D0280630B6
:10014600BA00BB010130BC00BD01162070080319BE
:10015600B0280130A2000030A3000630BA00BB016F
:100166000130BC000130BD00162070080319D028EC
:10017600220823040319D0283808F0003908F100B2
:10018600F00DF10D70107008243E84000008880000
:0E019600B80A0319B90AA201A3019628D128BC
:04400E00F22F000786
:00000001FF
