:02000000B72C1B
:06000600000000000800EC
:0E000C00213083120313FD00FD0B0A280800AB
:10001A000F3083120313FC004730FD00FD0B132839
:0A002A00FC0B132800000000080082
:1000340083160313A11B21288312851123288312FD
:1000440085158316211B2928831205112B28831259
:1000540005158316A11A31288312851033288312BB
:1000640085148316211A3928831205103B2883121C
:1000740005144B183F280516402805128516032041
:1000840085128316A1194928831285114B288312DE
:1000940085158316211951288312051153288312BB
:1000A40005158316A1185928831285105B2883121D
:1000B400851483162118612883120510632883127E
:1000C40005144B18672805166828051285160320A1
:0E00D40085124B1C6F280D2070280620080096
:1000E20083120313F801F9011030FC00710DF80DB1
:1000F200F90D7408F8027508031C750FF90203184C
:1001020089287408F80775080318750FF907031092
:0A011200F00DF10DFC0B772808003A
:10011C00831203136C08393C031C9B2830306C028F
:0E012C00031C9B280130F0009C28F001080005
:10013A0083120313EF0105306F020318AB286F080F
:10014A006E07840020308000EF0AA0286F086E072F
:10015A0084008001EF036F086E078316A0000A303F
:10016A00F400F50183126C08F0006D08F1007120AB
:10017A007808F0007908F1003030F007831620087B
:10018A008400700880000A30F400F50183126C08BC
:10019A00F0006D08F10071207008EC007108ED00A4
:1001AA0000307106031DDB2800307006031DDE28AF
:0801BA00E028EF03B028080063
:1001C200831203134B106C088316A1001A204B14E0
:0201D200080023
:1001D400831203132230FC00F801F901FA01FB0138
:1001E400FC03031920290310FB0CFA0CF90CF80C7E
:1001F400F30CF20CF10CF00C031CF228FC030319B1
:1002040012297408F80775080318750FF90776089A
:100214000318760FFA0777080318770FFB07F628F9
:100224007408F80775080318750FF907760803189A
:0E023400760FFA0777080318770FFB0708000C
:1002420083120313E301E501E6011030E7000430F5
:10025200660203184D29F03088006709831688006A
:10026200032003200F3083120805F0007008E40019
:100272007008031947296508E30064080319452932
:10028200E40CE413E30A3E290430E600E70D6710AC
:0E0292000430E507E60A28296308F00008009A
:1002A000063083120313FD00FD0B542900000800E3
:1002B0006A29803083120313E3007D29C030E300F4
:1002C0007D299430E3007D29D430E3007D298030FE
:1002D000E3007D29831203136308013A03195929A6
:1002E0006308023A03195E296308033A0319612976
:1002F0006308043A0319642967296403F00063085A
:10030000F0077008E30070088316A1001A204B1054
:10031000E601660865078400000803199729660846
:10032000650784000008EC00E120E60A89294B14E7
:020330000800C3
:1003320083120313630884000008E400E50100301F
:10034200E50000306506031DA82920306406031964
:10035200B32900306506031DB0290930640603196C
:10036200B329B529E30A9929E601E701E801E90180
:10037200EA01EB016308840000082D3A031DC62937
:10038200EA0A0319EB0AE30ACD296308840000088C
:100392002B3A031DCD29E30A630884000008E40018
:1003A200E5010030E5006408EC008E2070080319B6
:1003B2000C2A6608F0006708F1006808F200690874
:1003C200F3000A30F4000030F5000030F60000308F
:1003D200F700EA2030306402F4000030031C013ED2
:1003E2006502F5007408E6007508E7000030E71BB7
:1003F200FF30E800E9007008E60771080318710F82
:10040200E70772080318720FE80773080318730FDF
:10041200E907E30ACD296A086B040319232AF001CC
:10042200F101F201F3016608F0026708031C670F8D
:10043200F1026808031C680FF2026908031C690FC5
:10044200F3022B2A6608F0006708F1006808F20040
:060452006908F300080038
:1004580083120313E801E9016308EA006408EB006A
:1004680080306406F00080307002031D3D2A0030A1
:10047800630203184B2A0130E8000030E9006308E2
:10048800003CEA006408031C013EEB01EB026A0829
:10049800EC006B08ED006508EE009D200630E600D4
:1004A8000030E7006708003C031D5C2A6608003C32
:1004B8000318772A66086507F20001306602F00023
:1004C8000030031C013E6702F100700865078400D4
:1004D8000008F00072088400700880000130E6020D
:1004E800031CE703562A650884002030800068084A
:1004F80069040319952AE601E7016608650784007F
:100508000008203A031D8C2AE60A0319E70A812A03
:100518000130E602031CE7036608650784002D30F6
:040528008000080047
:10052C008312031306128616061386170630FB0079
:10053C001330FC00AD30FD00FD0BA22AFC0BA22AEF
:10054C00FB0BA22A0000000006128612061386136B
:02055C00080095
:10055E008312031306168612061786130630FB0047
:10056E001330FC00AD30FD00FD0BBB2AFC0BBB2A8B
:10057E00FB0BBB2A00000000061286120613861320
:02058E00080063
:100590004E3083120313E30099217008D4007108D0
:1005A000D500E101E2015408DD005508DE0001300C
:1005B0008316A1001A200130E3000130E4003A3034
:1005C000E50058210130DF000030E00060085E02E5
:1005D000031DEC2A5F085D02031C142B5D08E30079
:1005E0005E08E4005630E5002C220230E3000230C1
:1005F000E4005630E50058210618032B0130E100D5
:100600000030E200132B00306206031D092B01307D
:100610006106031D132B061C132B0130DD02031C86
:10062000DE03E101E201E62A0612861206138613B2
:020630000800C0
:100632002B2B803083120313D4003E2BC030D40006
:100642003E2B9430D4003E2BD430D4003E2B80304D
:10065200D4003E2B831203135408013A03191A2BB8
:100662005408023A03191F2B5408033A0319222B88
:100672005408043A0319252B282B5503F00054087B
:10068200F0077008D4004B1470088316A1001A20DA
:0E0692004B1056088316A1001A204B140800C6
:1006A000831203135408F2005608F0005708F100B3
:1006B0000130D602031CD703700871040319662B9E
:1006C0007208840055088000F20A542B5408F00088
:0206D000080020
:1006D20021217008D4000F300805F0000319732B94
:0A06E20050216C2B5408F0000800B2
:0E06EC00831203134A088A004908820008009E
:1006FA00831603138512051205108510051185113D
:10070A0083128512051285110511851005100D2019
:10071A000D200D20851405148516032085120D2041
:10072A008516032085120D208516032085120D20BB
:10073A0005108516032085120D20851603208512C3
:10074A00851085158516032085120D20851105143F
:10075A0085160320851205108516032085120D20A3
:10076A0085160320851205148516032085120D208F
:10077A00051085160320851285150515851405149F
:0C078A008516032085120D204B1408007A
:1007960083120313CC01CD0101308316A1001A2068
:1007A6000130E3000130E4002930E5005821CC0196
:1007B600CD0180304D06F00080307002031DE52B20
:1007C60005304C020318A12C4C084E3E840000084C
:1007D600003A031DF72B4C084E3ED30069235308FD
:1007E600840070088000E72B4C084E3E8400000809
:1007F600013A031D032C4C084E3E84003130800024
:100806004C084E3E84000008023A031D0F2C4C088B
:100816004E3E8400343080004C084E3E8400000872
:10082600033A031D1B2C4C084E3E840037308000D3
:100836004C084E3E840000080D3A031D292C06166E
:10084600861206178613C8229622A12C4C084E3E05
:1008560084000008053A031D352C4C084E3E8400E2
:10086600323080004C084E3E84000008063A031DD4
:10087600412C4C084E3E8400353080004C084E3EDC
:1008860084000008073A031D4D2C4C084E3E840098
:10089600383080004C084E3E840000080E3A031D96
:1008A6005B2C0612861606138617C822AF22A12CC9
:1008B6004C084E3E84000008093A031D672C4C087C
:1008C6004E3E8400333080004C084E3E84000008C3
:1008D6000A3A031D732C4C084E3E840036308000C5
:1008E6004C084E3E840000080B3A031D7F2C4C0832
:1008F6004E3E8400393080004C084E3E840000088D
:10090600083A031D8B2C4C084E3E84003030800084
:100916004C084E3E840000080F3A031D932CAA2C67
:100926000230D4004C0AD5004C084E3E8400000824
:10093600D6001923CC0A0319CD0ADC2B4E30D4007D
:10094600D5010530D6000030D7005023CB2B080048
:1009560076238A110A128000840AC90A0319CA0A70
:08096600F003031DAB2C080097
:10096E0024258316031788018901061483120313A5
:10097E0006148316061286120613861383120612A7
:10098E008612061386137D234E30D400D501053012
:10099E00D6000030D700502301308316A1001A2054
:1009AE000C308316A1001A20E3010130E400203040
:1009BE00E50058210B30FB002630FC005D30FD00B9
:1009CE00FD0BE72CFC0BE72CFB0BE72C00000000CB
:0E09DE00CB2301308316A1001A20CB2CF52C60
:100A480020308400293083120313F000FB30C900E2
:080A58000430CA00AB240800C1
:1009F600573445344C344C3443344F344D344534F9
:020A06000034BA
:100A080045346E3474346534723420345434753457
:100A180072346E3420344E3475346D3420343A34A4
:020A2800003498
:100A2A0020344D346F3474346F3472342034523479
:0E0A3A0075346E346E3469346E3467340034B3
:04400E00F22F000786
:00000001FF
