:020000002A29AB
:0E000600F201F101F001F801F30100300800F1
:0E0014008312031328088A00270882000800C0
:10002200243083120313FD00FD0B15280000080085
:10003200FB14FB1F2328FF30F300F200F100F00055
:08004200FA0DF20CFF3008007A
:10004A007B15FB1F2F280130F300F201F101F001AB
:08005A00FA0DF20CFF30080062
:100062007B14FB1F3C28F201FA1FFF30F200F10063
:0A007200F000FA0DF20CFF30080058
:10007C0083120313FB01730803197B287208FA001F
:10008C00F2178E30F302F31F7E28F309F30A0830BF
:10009C007302031C6128F300F10D7208F100F201E8
:1000AC0008307302031C6128F300F10DF101730891
:1000BC00031D031069287308031969280310F20C37
:1000CC00F10CF30B64287B1B711C7328031C732825
:1000DC00F10A0319F20AF21B8A28FA1F8D28F20979
:1000EC00F109F10A0319F20A8D28F201F1018D28A8
:1000FC007B14FB1F9028F201FA1F9028FF30F200AE
:10010C00F100FA0DF20C90280130FC00922800301E
:10011C00FC009228FF30FC00FC08031996283120C3
:0A012C007108F0007208F1000800ED
:100136000A208A110A128000840AA70A0319A80A4B
:08014600F003031D9B280800D3
:10014E00C330831203139F05C0309F002F08F000A9
:10015E00F00D7010F00D701070089F0483169F172D
:10016E0083121F1411209F149F1CBF280000BB2850
:10017E001F101E08F100F00183161E08F004003057
:04018E00F104080070
:1001920083120313FB017308031D77080319202937
:1001A20072087606FA007708F3077E30031CDD2812
:1001B200F30203182329E028F302031C26297208FC
:1001C200F8007108FC007008FD00F817F61703101C
:1001D200F201F101F0011830A0007D1CFA28740828
:1001E200F00775080318750FF10776080318760FE4
:1001F200F207F20CF10CF00CF80CFC0CFD0C0310E5
:10020200A00BEE28F21B0A29F80DF00DF10DF20DEC
:10021200F3037B1B701C1C29F81F1C29F00A03190D
:10022200F10A0319F20A031D1C29F20CF10CF00C5D
:10023200F30A03192329FA1FF21300302829013087
:100242000320282902301920282904302520000003
:020252000800A2
:10025400003083120313A9000030AA000030AB0061
:100264007E30AC008316031788011430890006140D
:1002740086140313081088100C308312AF00A720D3
:1002840070088312AD007108AE000A30AF00A720D9
:1002940070088312A1007108A2000030F000C03081
:1002A400F1007F30F2008830F3002908F4002A08B6
:1002B400F5002B08F6002C08F700C9203E20700832
:1002C400A3007108A4007008A5007108A60080307E
:1002D4002E06F200803071067202031D7329700825
:1002E4002D02031C7729081478290810803022066F
:1002F400F000803026067002031D822925082102A1
:0E030400031C86298814872988103E29882921
:04400E00F22F000786
:00000001FF
