:02000000C12815
:0E0006008312031322088A00210882000800DA
:1000140083120313FB01FA01F9018030F800F10C9B
:10002400F00C031C1E287408F90775080318750FD3
:10003400FA070318FB0A0310F01F26287408FA07AE
:1000440075080318750FFB07FB0CFA0CF90CF80C78
:10005400031C11287B08F3007A08F2007908F100E8
:060064007808F00008001E
:0C006A00831203139B011D129D1208005D
:10007600831603131208013EF000F1010318F10A7A
:1000860083122408F400F5010A200630F2007008F5
:10009600F4007108F500720803195628F50CF40CE3
:1000A600F513FF3E4F280430F1007408F000710884
:1000B60003196128F00D7010FF3E5B283030700583
:1000C600F3007408F0007508F100F10CF00CF11360
:1000D600F10CF00CF113700895000F3097057308BA
:0400E6009704080073
:0C00EA00831203139501171297120800EF
:1000F600831603131208013EF000F1010318F10AFA
:1001060083122408F400F5010A200630F200700874
:10011600F4007108F500720803199628F50CF40C22
:10012600F513FF3E8F280430F1007408F0007108C3
:100136000319A128F00D7010FF3E9B283030700582
:10014600F3007408F0007508F100F10CF00CF113DF
:10015600F10CF00CF11370089B000F309D0573082D
:040166009D040800EC
:10016A0003208A110A128000840AA10A0319A20A2A
:08017A00F003031DB528080085
:1001820083160317880189018312871388130130AC
:1001920083160313860088018113831212149210AE
:1001A2006330831692007520121492106330831606
:1001B200920035203230A3003230A0003230A40049
:1001C2003B202308A4007B200618F0286830FC009E
:1001D200E430FD00FD0BEB28FC0BEB2800000618B9
:1001E200F82801308800A30A2308A4003B208618BF
:1001F20003296830FC00E430FD00FD0BFE28FC0BF7
:10020200FE28000086180B2904308800A00A230863
:10021200A4007B206830FC00E430FD00FD0B0F29B8
:0A022200FC0B0F290000E528152948
:04400E00F22F000786
:00000001FF
