:020000001628C0
:0E0006008312031321088A00200882000800DC
:1000140003208A110A128000840AA00A0319A10A83
:08002400F003031D0A28080087
:10002C008316031388010130831288000630FB000D
:10003C001330FC00AD30FD00FD0B2228FC0B2228F8
:10004C00FB0B222800000000023088000630FB0069
:10005C001330FC00AD30FD00FD0B3228FC0B3228B8
:10006C00FB0B322800000000043088000630FB0037
:10007C001330FC00AD30FD00FD0B4228FC0B422878
:10008C00FB0B422800000000083088000630FB0003
:10009C001330FC00AD30FD00FD0B5228FC0B522838
:1000AC00FB0B522800000000103088000630FB00CB
:1000BC001330FC00AD30FD00FD0B6228FC0B6228F8
:1000CC00FB0B622800000000203088000630FB008B
:1000DC001330FC00AD30FD00FD0B7228FC0B7228B8
:1000EC00FB0B722800000000403088000630FB003B
:1000FC001330FC00AD30FD00FD0B8228FC0B822878
:10010C00FB0B822800000000803088000630FB00CA
:10011C001330FC00AD30FD00FD0B9228FC0B922837
:0C012C00FB0B92280000000019289B2803
:04400E00F22F000786
:00000001FF
