:02000000D12805
:0E0006008312031321088A00200882000800DC
:1000140083120313FB01FA01F9018030F800F10C9B
:10002400F00C031C1E287408F90775080318750FD3
:10003400FA070318FB0A0310F01F26287408FA07AE
:1000440075080318750FFB07FB0CFA0CF90CF80C78
:10005400031C11287B08F3007A08F2007908F100E8
:060064007808F00008001E
:0C006A00831203139B011D129D1208005D
:10007600831603138710831212150C309D04080093
:10008600831603130711831212150C309704080008
:0C00960083120313950117129712080043
:1000A200831603131208013EF000F1010318F10A4E
:1000B20083122208F400F5010A200630F2007008CB
:1000C200F4007108F500720803196C28F50CF40CA1
:1000D200F513FF3E65280430F1007408F000710842
:1000E20003197728F00D7010FF3E7128303070052B
:1000F200F3007408F0007508F100F10CF00CF11334
:10010200F10CF00CF113700895000F30970573088D
:040112009704080046
:10011600831603131208013EF000F1010318F10AD9
:1001260083122208F400F5010A200630F200700856
:10013600F4007108F50072080319A628F50CF40CF2
:10014600F513FF3E9F280430F1007408F000710893
:100156000319B128F00D7010FF3EAB283030700542
:10016600F3007408F0007508F100F10CF00CF113BF
:10017600F10CF00CF11370089B000F309D0573080D
:040186009D040800CC
:10018A0003208A110A128000840AA00A0319A10A0C
:08019A00F003031DC528080055
:1001A20083160317880189011F3086008312031307
:1001B200861206138613831688018312880112148D
:1001C20092109C30831692004B20121492109C3095
:1001D20083169200352043203B206430A200512038
:1001E2006430A2008B200608033A031D0E29CA3090
:1001F200A2005120CA30A2008B20093088000230B0
:10020200FB004530FC00A930FD00FD0B0629FC0B6C
:100212000629FB0B0629000000000608133A031DFD
:100222002329CA30A2005120A2018B20013088006C
:100232008230FC00DD30FD00FD0B1D29FC0B1D2969
:10024200000000000608193A031D3829A2015120B6
:10025200CA30A2008B20043088008230FC00DD30DE
:10026200FD00FD0B3229FC0B3229000000000608BC
:10027200183A031D5229CA30A2005120CA30A200E6
:100282008B20063088000230FB004530FC00A9308C
:10029200FD00FD0B4A29FC0B4A29FB0B4A290000F1
:1002A20000000608043A031D5C29A2015120A201A4
:1002B20051200F30880006080B3A031D7429CA30FA
:1002C200A2005120A2018B20013088000D30FB00DA
:1002D200AF30FC00B630FD00FD0B6D29FC0B6D2923
:1002E200FB0B6D29000006081A3A031D8C29CA303F
:1002F200A2005120A2018B20043088000D30FB00A7
:10030200AF30FC00B630FD00FD0B8529FC0B8529C2
:10031200FB0B852900000608003A031DA529CA30F7
:10032200A2005120A2018B20043088000230FB0081
:100332004530FC00A930FD00FD0B9D29FC0B9D29D9
:0C034200FB0B9D2900000000F428A629F8
:04400E00F22F000786
:00000001FF
